:4000000000100020110000008D0A00008D0A000080B500AF00F03EFD80B584B000AF021CFB1D1A70224A3B1C0B3312781A70214A3B1C0A3312781A701F4B1B68013BFB60BE
:400040001AE01E4B1868391C0B31FA68131C5B009B18C31801331B780B70184B1868391C0A31FA68131C5B009B18C31802331B780B70FB68013BFB60FB68002B0ADB0F4B59
:400080001968FA68131C5B009B185B5CFA1D12789A42D6D90A4B3A1C0B3212781A60094B3A1C0A3212781A60BD4604B080BDC046CCF1FF0FCDF1FF0F58250000CC0000206D
:4000C0001CFF0B4020FF0B4080B500AF1B4B1B4A12688021C9020A431A601820FFF79CFF174B19221A60052001F052F9154B164A1278D2B21A60052001F07EF90F4B0F4A0B
:400100001168124A0A401A60114B10221A60114B10221A60104B20221A60104B802212061A600F4B802212061A600E4B802212061A600D4B0D4A1A60BD4680BD00010B40A0
:400140002CFF0B4028FF0B40E5F1FF0FFFFFFBFF080202400C0202403002024008010B4004010B4000000240400002400B00008080B582B000AF72B6FB1D00221A7023E0B3
:40018000FB1D1A78131C5B009B185B003F4A9B183B603B681A78597809020A43997809040A43DB781B0613431A1C3B6819795B791B020B439BB2101C191C00F0EBFCFB1D4C
:4001C000FA1D127801321A70FB1D1B78012BD7D92F4A304B101C191C00F0ECFC2E4B802252001A802D4B01221A702D4B2D4A1A602D4B03221A602D4B2D4A1A602D4BC0227E
:400200001A602D4B2D4A1A602D4B01221A602D4B2D4A1A602D4B1F221A602D4B2D4A1A602D4B71221A602D4B2D4A1A602D4B2E4A1A602E4B802212031A602D4B2A4A1A6059
:400240002C4BA02292031A602B4B992212041A602A4B2B4A1A602B4B992212041A602A4B294A1278D2B202210A43D2B21A70264B254A1278D2B206210A43D2B21A70FFF776
:4002800023FF00F0D7FCBD4602B080BD902300009C230000BC23000000600F4002600F40000001400000F0FF040001400C0001400FEEFF0F0000044008000440888DD8006C
:4002C00000010440080104404E0018000002044008020440922418000003044008030440866D1B0000500F400400990004500F4010500F4014500F4020500F4024500F403D
:400300000000AA0230500F4000700F4010B5064C2378002B07D10548002802D0044800E000BF0121217010BD48010020000000008023000008B5084B002B03D00748084962
:4003400000E000BF07480168002903D0064A002A00D0904708BDC04600000000802300004C010020C80000200000000090B591B000AF4223FB634223BB6300237B630023A7
:400380003B634223FB624223BB6200237B6200233B620023FB610023BB6100237B6101233B6100F067FC01F03BF9002000F09CFC0023FB6020E001F073FB031C181C7C2131
:4003C00001F02AFB0B1C0433BB6001F069FB031C181C7C2101F020FB0B1C04337B60144BFA689200B968D150124BFA6892007968D150FB680133FB60FB68C72BDBDD0020DD
:4004000001F054F800E0C046FA690323134008D101F046FB031C181CC82101F0FDFA0B1CBB61FB690133FB610023FB608EE0C0466401002084040020FB68181C052101F08A
:40044000EBFA0B1C002B0DD1D44BFA689200D158D34BFA689200D258D24B081C111C1A1C00F09EFCFB68181C052101F0D5FA0B1C012B0ED1C94BFA689200D158C84BFA686C
:400480009200D258F4231B01081C111C1A1C00F087FCFB68181C052101F0BEFA0B1C022B0DD1BE4BFA689200D158BD4BFA689200D258BC4B081C111C1A1C00F071FCFB6821
:4004C000181C052101F0A8FA0B1C032B0ED1B34BFA689200D158B24BFA689200D258FD231B01081C111C1A1C00F05AFCFB68181C052101F091FA0B1C042B0DD1A74BFA68DB
:400500009200D158A64BFA689200D258A54B081C111C1A1C00F044FCFA68BB699A4212DAFB681A1C1432BB699A420CDD9B4BBA699200D2589A4BB9698900CB58101C191C5B
:40054000002200F02DFCFB680133FB60FB68C72B00DC71E701F0C0F8031C002B1BD0BC1C01F0AAF8031C2380BB1C1A887F231340FB62BB1C1A88FE239B011340BB62BB6A24
:40058000DB11BB62BB1C1A88C0231B0213403B633B6B9B133B637A6AFB6A9A4203D13A6ABB6A9A4206D07A6A3B6A101C191C002200F0FEF8FA6ABB6A101C191C0F2200F065
:4005C000F7F8FB6A7B62BB6A3B62F96BBA6BF4231B01081C111C1A1C00F0EAF800237B6300F01EFF031C002B15D1BB6B6F2B09DCFA6BBB6B101C191C002200F0D9F8BB6B1B
:400600000133BB63F96BBA6BF4231B01081C111C1A1C00F0CDF800F011FF031C002B15D1BB6B142B09DDFA6BBB6B101C191C002200F0BEF8BB6B013BBB63F96BBA6BF42321
:400640001B01081C111C1A1C00F0B2F800F004FF031C002B15D1FB6B142B09DDFA6BBB6B101C191C002200F0A3F8FB6B013BFB63F96BBA6BF4231B01081C111C1A1C00F0C3
:4006800097F800F0F7FE031C002B15D1FB6B6F2B09DCFA6BBB6B101C191C002200F088F8FB6B0133FB63F96BBA6BF4231B01081C111C1A1C00F07CF800F0EAFE031C002B72
:4006C00010D13B697B63F96BBA6B3B69081C111C1A1C002300F09CF800233B613B69181C00F03CF93B6B002B08D0F96ABA6A3B6B081C111C1A1C012300F08AF87B69181C75
:40070000642101F089F90B1C002B09D13B69012B06DC3B6901333B613B69181C00F01EF97B6901337B6100F08DFF031C1A1C022313401FD03B1C7A6B1A803B1C3A1C128847
:40074000D2011A80BB6B99B23B1C3A1C12888A181A803B1C3A1C1288D2011A80FB6B99B23B1C3A1C12888A181A803B1C1B88181C00F088FF0C4B1A680C4B1B68D318C72BFB
:4007800000DC40E6084B1B68181C00F013F9074B1B68181C00F038F9FEE7C0466401002084040020FF0F0000A4070020A807002090B587B002AFF860B9607A60BB68191C77
:4007C0000F39BB680F33F868FA687C68009400F0DBFCFB68181C0F38FB681A1C0F32B968BB687C68009400F0CFFCF968BA687B68081C111C0A2200F00DFBF968BA687B68DB
:40080000081C111C052200F005FBBD4605B090BD80B586B000AFF860B9607A603B607B68002B00D18FE000237B6115E0F968BA687B69081C111C1A1CF02300F0EBFA7B694F
:4008400001337B61F868B9687A69F4231B0100F0E1FA7B6901337B617A68131C9B009B189B001A1C7B699A42E0DC00237B610BE0F968BA687B69081C111C1A1C002300F07B
:40088000C9FA7B6901337B617A68131C9B009B189B005A1C7B699A42EADC00237B614FE02A4B7A699200D058294B7A699200D258F968BB6800F0D0F8011C7A68131C9B0033
:4008C0009B189B00581C7A68131C9B009B189B0001334343994230DA1C4B7A699200D358002B2AD01A4B7A699200D358002B24D0164B7A699200D258154B79698900CB585F
:40090000101C191C002200F04BFA104B7A6992000021D1500E4B7A6992000021D1503B68002B05D00B4B1B685A1C0A4B1A6004E0094B1B685A1C084B1A607B6901337B612A
:400940007B69C72BACDDBD4606B080BD6401002084040020A8070020A407002080B582B000AF78607B68002B08D1002000F09EFD012000F0C1FD012000F0E4FD7B68012B0B
:4009800008D1012000F092FD002000F0B5FD012000F0D8FD7B68022B08D1012000F086FD012000F0A9FD002000F0CCFDBD4602B080BDC04680B58AB002AF78607B68C8224C
:4009C000D31A391C0C310F4A081C111C1A1C01F0A7F801230093F4231B0101930020142132226E2300F058FC3B1C0C33F42212010092181C0F211E22002300F091FBBD4675
:400A000008B080BD8423000080B58AB002AF78607B68C822D31A391C0C310E4A081C111C1A1C01F07DF8012300930F2301938420142152226E2300F02FFC3B1C0C330F2254
:400A40000092181C61211E22002300F069FBBD4608B080BD8423000080B584B000AFF860B9607A603B60FA68BB68D31AF968BA688A1A5A4379683B68CB1A78683968411A5F
:400A80004B43D318181CBD4604B080BD80B500AFFEE7C04680B586B000AF254B7B61254B3B61234B7B61234B3B6132E03B691B68FB603B695B68BB603B699B683B60002385
:400AC0007B600CE0FB681A68BB681A60BB680433BB60FB680433FB607B6804337B607A683B689A42EED13B69DB683B6000237B6008E0BB6800221A60BB680433BB607B68AF
:400B000004337B607A683B689A42F2D13B6910333B617B695A1E9341DBB27A69013A7A61002BC3D100F084FFFFF720FCFEE7C04601000000C82B000080B582B000AF0023EA
:400B40007B600FE07B68032B04D80E4B7A689200D35800E00C4B0D4A796889008B507B6801337B607B682F2BECD9FFF701FB084B00221A608023DB0501221A60BD4602B049
:400B800080BDC046000000008D0A000000000020C000002080B582B000AF786039607A683B68101C00211A1C00F071FFBD4602B080BDC04680B586B000AF786039600023C6
:400BC0003B6100237B612EE07B699B007A68D3181B68BB603B1C0F33BA681A70BB68FF229343BB6017E03B695B003A68D3181B781A1CBB68D3183A69520039688A1852788C
:400C00001A703B6901333B613B1C0F333A1C0F321278013A1A703B1C0F331B78002BE2D17B6901337B617B69072BCDD9BD4606B080BDC04680B500AFBD4680BD80B582B0F6
:400C400000AF78607B68181C00F0C6FDBD4602B080BDC04680B582B000AF78607B688022520013437B607B68181C00F0B5FDBD4602B080BD80B500AF00F09CFD032000F00A
:400C800009FE142000F0B8FB002000F05BFBC82000F08EFBFF2000F055FBC82000F088FB1120FFF7CBFF0320FFF7C8FF2920FFF7C5FF3A20FFF7C2FF0320FFF7CBFF3620B7
:400CC000FFF7BCFF2520FFF7B9FF3020FFF7C2FF0020FFF7B3FF3C2000F050F8002000F003F8BD4680BDC04680B584B000AF78602B20FFF7A3FF0020FFF7ACFF8320FFF76F
:400D0000A9FF2A20FFF79AFF0020FFF7A3FF8320FFF7A0FF2C20FFF791FF0023FB601AE07B681B111A1CFF231340181CFFF792FF7B681A01FF231A407B681B121343181C6F
:400D4000FFF788FF7A68FF231340181CFFF782FFFB680133FB60FA68054B9A42E0D9054B00221A60044B00221A60BD4604B080BD83210000AC070020B007002080B582B03B
:400D800000AF78607A687F2313407B602520FFF755FF7B68181CFFF75DFFBD4602B080BD80B584B000AFF860B9607A60BB688322D31ABB60FB688322D31AFB602B20FFF74C
:400DC0003DFFFB68DBB2181CFFF744FFFB68DBB2181CFFF73FFF2A20FFF730FFBB68DBB2181CFFF737FFBB68DBB2181CFFF732FF2C20FFF723FF7B681B11DBB2181CFFF74E
:400E000029FF7B681B01DBB2181CFFF723FFBD4604B080BD80B58AB000AFF860B9607A603B607B680122D31A7B6200233B627A68131CDB079B1A5B00FB610023BB617B68A9
:400E40007B61BA687B68D218F9683B68081C111C1A1CFFF7A5FFBA687B68D21AF9683B68081C111C1A1CFFF79BFFFA687B68D118BA683B68081C111C1A1CFFF791FFFA6814
:400E80007B68D11ABA683B68081C111C1A1CFFF787FF77E07B6A002B09DB7B69013B7B61FB690233FB617A6AFB69D3187B62BB690133BB613B6A02333B623B6A01337A6AA8
:400EC000D3187B62FA68BB69D118BA687B69D2183B68081C111C1A1CFFF762FFFA68BB69D11ABA687B69D2183B68081C111C1A1CFFF756FFFA68BB69D118BA687B69D21A13
:400F00003B68081C111C1A1CFFF74AFFFA68BB69D11ABA687B69D21A3B68081C111C1A1CFFF73EFFFA687B69D118BA68BB69D2183B68081C111C1A1CFFF732FFFA687B6992
:400F4000D11ABA68BB69D2183B68081C111C1A1CFFF726FFFA687B69D118BA68BB69D21A3B68081C111C1A1CFFF71AFFFA687B69D11ABA68BB69D21A3B68081C111C1A1CEA
:400F8000FFF70EFFBA697B699A4283DBBD460AB080BDC04680B590B000AFB9607A603B603B1C0F33021C1A707B688322D31A7B60BB688222D31ABB60584B7B627B6A1B78E3
:400FC0003B627B6A01331B78FB617B6A02331B78BB613B1C0F331B781F3BBA6953431A1CBB69D318013B7A6AD318BB622B20FFF725FEBB68DBB2181CFFF72CFEBB68DAB2C0
:40100000FB69DBB2D318DBB2013BDBB2181CFFF721FE2A20FFF712FE7B68DBB2181CFFF719FE7B68DAB23B6ADBB2D318DBB2013BDBB2181CFFF70EFE2C20FFF7FFFDBB69BA
:40104000013BBA6AD318BB62FB69013BFB635EE03B1C1733BA6A12781A70BB6A013BBB623B1C373301221A700023BB6348E03B1C17333A1C37321B7812781340DBB2002B16
:4010800002D1BB6C3B6301E03B683B633B1C37333A1C3732127852001A703B1C17333A1C37321B7812781340DBB2002B02D1BB6CFB6201E03B68FB623B1C37333A1C373250
:4010C000127852001A703B6B1B111A1CFF231340181CFFF7BFFD3B6B1A01FF231A40FB6A19120F230B401343181CFFF7B3FDFA6AFF231340181CFFF7ADFDBB6B0233BB6387
:40110000BA6B3B6A9A42B2DBFB6B013BFB63FB6B002B9DDABD4610B080BDC0465C25000090B589B002AFF860B9607A603B60BB681033BB607B6808337B607B687B6119E0A6
:40114000FB681878FB680133FB60B9687A683B68BC6A0094FFF71EFF7B6808337B607B68832B04DDBB681033BB607B697B60BB68832B04DCFB681B78002BE1D100E0C04602
:40118000BD4607B090BDC04680B58AB000AFF860B9607A603B603A68BB68D31A7B627A68FB68D31A3B627B6A002B06DA7B6A5B427B6201235B42BB6101E00123BB613B6ACE
:4011C000002B06DA3B6A5B423B6201235B42FB6101E00123FB617B6A5B007B623B6A5B003B62F968BA683B6B081C111C1A1CFFF7D7FD3A6A7B6A9A4225DD3B6A5B107A6AF8
:40120000D31A7B611AE07B69002B07DBBA68BB69D318BB607A693B6AD31A7B61FA68FB69D318FB607A697B6AD3187B61F968BA683B6B081C111C1A1CFFF7B2FDFA687B6828
:401240009A42E0D124E07B6A5B103A6AD31A3B611AE03B69002B07DBFA68FB69D318FB603A697B6AD31A3B61BA68BB69D318BB603A693B6AD3183B61F968BA683B6B081C30
:40128000111C1A1CFFF78CFDBA683B689A42E0D1BD460AB080BDC04690B589B002AFF860B9607A603B60BB6A002B27D0FA687B689A4204DDFA687B68D31A7B611AE07A68B2
:4012C000FB68D31A7B6115E0F868B968FA683B68FC6A0094FFF758FFFA687B689A4203DDFB68013BFB6002E0FB680133FB607B69013B7B617B69002BE6DA1FE0F868B968E6
:401300007A68BB68FC6A0094FFF73EFFF86839687A683B68FC6A0094FFF736FFF868B968FA683B68FC6A0094FFF72EFF7868B9687A683B68FC6A0094FFF726FFBD4607B0D8
:4013400090BDC04680B584B000AF021CFB1D1A700E4B1B68DAB23B1C0F3340218A431A70FB1D1B789B01DAB240231340D9B23B1C0F333A1C0F3212780A431A70034B3A1C40
:401380000F3212781A60BD4604B080BD000204400230800804D0C0460138FDD1C046C0467047EFF3108072B6704780F31088704780B582B000AF786008E00C4B1B68181C59
:4013C000FFF7E6FF7B680A4A9B187B607A6880231B029A42F1D8074B1B687A685343181CFFF7D6FFBD4602B080BDC046DC0000200080FFFFD400002080B582B000AF021C20
:40140000BB1D1A80BB1D1B88044A12785343181CFFF7BEFFBD4602B080BDC046D800002080B500AF044B1A68042313409B08DBB2181CBD4680BDC0460402044080B500AF73
:40144000044B1B68DAB201231340DBB2181CBD4680BDC0460402044080B500AF044B1A68022313405B08DBB2181CBD4680BDC0460402044080B500AF044B1A68102313402A
:401480001B09DBB2181CBD4680BDC0460402044080B500AF044B1A6808231340DB08DBB2181CBD4680BDC0460402044080B584B000AF021CFB1D1A700E4B1B68DAB23B1CB9
:4014C0000F3340218A431A70FB1D1B789B01DAB240231340D9B23B1C0F333A1C0F3212780A431A70034B3A1C0F3212781A60BD4604B080BD0001044080B584B000AF021CF5
:40150000FB1D1A700E4B1B68DAB23B1C0F3308218A431A70FB1D1B78DB00DAB208231340D9B23B1C0F333A1C0F3212780A431A70034B3A1C0F3212781A60BD4604B080BDFF
:401540000000044080B584B000AF021CFB1D1A700E4B1B68DAB23B1C0F3304218A431A70FB1D1B789B00DAB204231340D9B23B1C0F333A1C0F3212780A431A70034B3A1CC6
:401580000F3212781A60BD4604B080BD0000044080B500AF084B0F221A7000F0B5F800F051F800F05FF8054B00221A70044B00221A70BD4680BDC04682000F4083000F40BF
:4015C00081000F4090B583B000AFFC1DFFF7E9FE031C23700F4B0F4A1278D2B220210A43D2B21A700C4B0C4A1278D2B210210A43D2B21A70094B094A1278D2B210210A4375
:40160000D2B21A70FB1D1B78181CFFF7CEFEBD4603B090BD92000F4093000F4091000F4080B500AF064B1B78002B04D1FFF7B0FF034B01221A70FFF7C5FFBD4680BDC046ED
:40164000B407002080B582B000AF054AFB1D12781A70FB1D1B78181CBD4602B080BDC04663000F4080B582B000AF054AFB1D12781A70FB1D1B78181CBD4602B080BDC0460D
:4016800061000F4080B582B000AF021CBB1D1A80C046074B1B78DBB21A1C02231340F8D0044BBA1D12881A80BD4602B080BDC04663000F4084100F4080B582B000AF054A9A
:4016C000BB1D12881A80BB1D1B88181CBD4602B080BDC046A4100F4080B582B000AF094B1B78DBB21A1C0823134001D0012300E00023FA1D1370FB1D1B78181CBD4602B0D0
:4017000080BDC04661000F4090B583B000AF01E01A4B1B881A4B1B78DBB21A1C08231340F6D1FC1DFFF73DFE031C2370154B154A1278D2B203210A43D2B21A70114B114AA7
:401740001278D2B203218A43D2B21A700E4B0E4A1278D2B203210A43D2B21A700A4B0A4A1278D2B203218A43D2B21A70FB1D1B78181CFFF71AFEBD4603B090BDA4100F4075
:4017800061000F4092000F4093000F4080B500AF00F038F8BD4680BD80B500AF044B044A1268802109060A431A60BD4680BDC0460000074080B500AF064B1B78002B04D1AB
:4017C000044B01221A70FFF7E1FFFFF7E5FFBD4680BDC046B807002080B582B000AF7860C046064B1A680F231340082BF9D0044B7A681A60BD4602B080BDC04608020740DC
:401800004002074080B500AF124B134A1A60134B134A1A60134B144A1A60144B07221A60134B144A1A60144B00221A60134B00221A60134B00221A60124B00221A60124B1F
:4018400000221A60114B00221A60114B00221A60BD4680BD00000740030000012000074010000080000307400803008004030740000207400801008004020740880E07403B
:40188000C80E0740480F0740080F0740C80F0740880F074080B584B000AF78600A4B1B68FB60FA68094B1340FB607B689A06C0231B051340FA681343FB60034BFA681A6076
:4018C000BD4604B080BDC04620000740FFFFFFF3002934D00123002210B488422CD301242407A14204D2814202D209011B01F8E7E400A14204D2814202D249005B00F8E73B
:40190000884201D3401A1A434C08A04202D3001B5C0822438C08A04202D3001B9C082243CC08A04202D3001BDC082243002803D01B0901D00909E3E7101C10BC7047002862
:4019400001D00020C04307B4024802A14018029003BDC046D90000000029F0D003B5FFF7B9FF0EBC4243891A1847C046002941D010B4041C4C40A44601230022002900D5C4
:401980004942002800D5404288422CD301242407A14204D2814202D209011B01F8E7E400A14204D2814202D249005B00F8E7884201D3401A1A434C08A04202D3001B5C0819
:4019C00022438C08A04202D3001B9C082243CC08A04202D3001BDC082243002803D01B0901D00909E3E7101C6446002C00D5404210BC7047002806D003DB0020C043400835
:401A000001E08020000607B4024802A14018029003BDC046190000000029EBD003B5FFF7A7FF0EBC4243891A1847C0467047C04670B50E4B0E4D0024E81A85101E1CAC42A6
:401A400004D0A100725890470134F8E701F0AAF80849094A0E1C541AA5100024AC4204D0A300F05880470134F8E770BDB02B0000B02B0000B02B0000B82B000010B5002383
:401A8000934203D0CC5CC4540133F9E710BD00B58218031C934202D019700133FAE700BD38B5194C2568AB6B002B17D1182000F07FFBA8632068154A816B154B0A80154A1C
:401AC0008B800B23144D0A818B810122002313480A614B614D800525C8804D812468094B074AA56B2869696900F00CFC01230024C0186141286169614900480838BDC046AB
:401B00002D7F954C2DF45158440100200E33000034120000ECDEFFFFCDABFFFF6DE6FFFF0EB400B59CB01DAB02A904CB822202900861920009488A810122886048615042FB
:401B4000074AC88110681D9A019300F063F8029900230B701CB008BC03B01847FFFFFF7F44010020F7B501919168071C141C002940D190239289D80002423BD02568216931
:401B800063696E1A58000096C6180098F50FAB1901305D10A84201DB009D0235381C53050FD5291C00F00EFB061E13D02169009AFFF764FFA7891649802239401143A181FB
:401BC00011E02A1C00F054FB061E0CD1381C216900F0A6FA0C203860A58940263543A5810124604213E0009B6561F018ED1A26612060A560A668002E08DD694627680A79F2
:401C00003A70A3680137013B2760A3600020FEBD7FFBFFFFF0B5A1B0049007938B890E1C171C19060FD53269002A0CD1402100F0C9FA30603061002803D1049C0C262660DB
:401C4000D6E04020706108AD00212024302369616C76AB763C1C2278002A04D1E01B069019D003970FE0252AF8D00134F3E70399321C09780498FFF775FF039A0132039253
:401C8000013000D1AFE003990698CB1B8342EEDB0D9F3A180D922178002900D1A3E001206A4600234742633201342B60EB606F60AB601370AB65504F2178381C052200F005
:401CC000CBFA002807D0C71B2B680120B840184328600134EFE72B68D90603D568462021633001701A0703D56A462B276332177021782A2901D00B9B0EE0079A1068111DB8
:401D00000791002801DB0B9004E0022247421343EF602B60013409E020783038092804D80A277B4301341B18F6E70B9323782E2B18D161782A2909D1079B02341A68191D3B
:401D40000791002A0DDA012042420AE00134002220783038092804D80A277A4301341218F6E70992254F2178381C032200F074FA002806D02B68C21B402191401943296099
:401D8000013421781E4806222976671C00F064FA002817D01B4800280BD12868079C0723C10501D5E41800E007349C430834079414E007AA00920498291C321C124B00E078
:401DC00000BF07E007AC00940498291C321C0E4B00F08CF8059005994A1C04D00D99059A8C180D9436E7B589690601D40D9801E00127784221B0F0BD6E2B0000742B000046
:401E0000782B000000000000651B0000F7B5151C01930A698B6800900C1C934200DA131C201C2B6043300178002901D001332B602668B00602D52F6802372F602268062676
:401E400016401CD0261C4336377822683E1C731E9E4192061CD5A319181C40303021271CC17045373A784133DA70023610E0617E0098019A089FB847013006D00136E3685F
:401E80002868191A8E42F2DBDCE7012040422CE00027B7420ADAE119433109780098019A089B98470130F0D00137F2E72B68256806212940E6680025042903D1F01AC7436E
:401EC000FD170540A2682669B24201DD931BED180027AF4208DAA17E0098019A089EB0470130D2D00137F4E70020FEBDF0B50D1C8BB0433507930590069204950A7E0C1C30
:401F0000109B6E2A00D1A8E012D8632A24D009D8002A00D1B1E0582A00D0C1E045310A707D4D51E0642A1FD0692A00D0B8E01BE0732A00D1A5E009D86F2A2BD0702A00D00A
:401F4000AEE00A68202616430E6038E0752A21D0782A00D0A4E032E018680E1C051D1D600368423633709EE026681F68300606D4750604D5381D186000203D5E02E03D1D1A
:401F80001D603D68644B002D3BDA04992D226D420A7036E027681E683D0605D4780603D5351D1D60358802E0311D196035685A4B207E039308276F281ED00A271CE0271C8D
:401FC00045377820554D38701A682668111D03951960300603D4750601D5158800E01568F00702D520231E4326601027002D03D12668202086432660261C43360022327010
:4020000001E003930A276168A160002903DB2068042398432060002D02D1049E00290ED0049E281C391CFFF797FC039A013E515C281C3170391CFFF74BFC051EF1D1049B2C
:402040009A1B2261082F33D12768F80730D5606890422DDC013262602AE008681E684969050606D4450604D5351D1D603368198003E0321D1A603768396000202061049EDD
:4020800016E01E68311D19603668301C00F028F965682061A84200D925612369636004E0261C4236327001212161049F00223A7007990598009109AA211C069BFFF7A6FEB0
:4020C00001300CD0351C2269AB1B93420ADA29780598069A079FB84701350130F3D10122504217E02668B10705D4099BE068984210DA181C0EE00025E7680998391A8D42F6
:40210000F3DA617E0598069A079EB0470130E6D00135F1E70BB0F0BD7F2B0000902B000030B5002940D004390B68002B00DAC9181E4A1368141C002B02D14B60116033E064
:4021400099420FD20D684A199A4205D110682B1855680B604D6000E04B60216024E08A4203D8131C5A68002AF9D11D685C198C420BD10C682D1958191D60904214D1116871
:4021800052686C181C605A600EE08C4202D90C21016009E008680D18954203D114685268001908604A60596030BDC046C007002008B5034B011C186800F004F808BDC0460A
:4021C0004401002070B50323CD1C9D430835061C0C2D01D20C2501E0002D2DDB8D422BD31C4A1368111C1C1C002C12D02068421B0CD40B2A02D92260A41815E0A34202D1D3
:4022000066680E601CE065685D6019E0231C6468EAE7301C291C00F051F8421C0CD0C41C03218C43844201D1256009E0211A301C00F044F80130F7D10C243460002008E0B2
:40224000201C0B300722211D9043431A01D05D42E55070BDC007002000B5C9B28218904204D003788B4202D00130F8E7002000BDF8B5061C0C1C151C002904D1111CFFF7D7
:40228000A1FF041C18E0002A03D1FFF749FF2C1C12E000F02CF8A8420ED2301C291CFFF791FF071E07D0211C2A1CFFF7E7FB301C211CFFF735FF3C1C201CF8BD38B5074C68
:4022C0000023051C081C236000F03EF8431C03D12168002900D0296038BDC046C80700200023C25C0133002AFBD1581E704704390B6800B5181F002B02DAC8581918081FF2
:4023000000BD00009C460304F0B51B0C17043F0C150C1E1C041C000C7E436B4347434543FB18300C1818874202D980277B02ED18070CED1967467C434A433604330CA1182D
:4023400000044919C018F0BD0A4A00B51368002B0CD018186946884202D81060181C00BD054B0C2201201A604342F7E7034B1360EFE7C046C4070020C8070020D007002019
:402380000000000025642053746172730000000000300F40000400400F40000403000F4018300F401A310F4048320F4040330F4002400F400C410F4002600F408178820FDB
:4023C0008347040807011201140526082E07300432023408350136013E515608580459045B045F018C01B001BE01D420D804DB04DF010008070208020A20121119A01A2013
:402400001B021F012008380459095A105B405F0260066211631065206712C084C20CC405CE02D68FD87F001002C106800903121E14C1160818C11A0420C1220226212F0286
:4024400030203280330134403502361F3E543F14400241034220440149FF4AFF4BFF4C024E704F0C508C511056025724580459045A245B245C085D885E085F2168406901CB
:402480006AC06B01C002C103C220C405C50CC6EFC7BDC83DC9FFCAFFCBFFCC23CEF0CF0CD08CD110D441DA24DB04DD08DF01E840E901EAC0EB01040A05080EA81080130251
:4024C000150117081DA01E962518271028102B202C02352037103F204108420445A84A215086532058105984620865206C016D016E287B027C848080811083108C068D047D
:402500008F029610980299809B089D089F02A208A520A620AB08B208B302B521B620B740C030C270C430CA10CE20D076D208D60ED822DE58E4400710C02003080620502000
:40254000802083088E20AB10C060D420E280E480E820100111010000040000000810100000000000000000000000000008101000000000000000000000000000000000006E
:402580000000000000000000000000000000183C3C3C181818001818000000000063636322000000000000000000000000000036367F3636367F3636000000000C0C3E635B
:4025C00061603E030343633E0C0C000000000000006163060C183363000000000000001C36361C3B6E66663B000000000030303060000000000000000000000000000C18EE
:40260000183030303018180C000000000000180C0C060606060C0C18000000000000000042663CFF3C6642000000000000000000181818FF181818000000000000000000B8
:4026400000000000000018181830000000000000000000FF00000000000000000000000000000000000018180000000000000103070E1C3870E0C0800000000000003E6315
:4026800063636B6B6363633E0000000000000C1C3C0C0C0C0C0C0C3F0000000000003E6303060C183061637F0000000000003E6303031E030303633E000000000000060E68
:4026C0001E3666667F06060F0000000000007F6060607E030363733E0000000000001C3060607E636363633E0000000000007F630306060C0C1818180000000000003E63A3
:4027000063633E636363633E0000000000003E636363633F0303063C000000000000000000181800000018180000000000000000001818000000181818300000000000066C
:402740000C18306030180C06000000000000000000007E00007E0000000000000000006030180C060C1830600000000000003E6363060C0C0C000C0C0000000000003E63FA
:40278000636F6B6B6E60603E000000000000081C366363637F6363630000000000007E3333333E333333337E0000000000001E33616060606061331E0000000000007C36A5
:4027C000333333333333367C0000000000007F3331343C343031337F0000000000007F3331343C34303030780000000000001E336160606F6363371D00000000000063630B
:4028000063637F63636363630000000000003C18181818181818183C0000000000000F06060606060666663C000000000000733336363C36363333730000000000007830B6
:40284000303030303031337F00000000000063777F6B6363636363630000000000006363737B7F6F676363630000000000001C36636363636363361C0000000000007E3396
:4028800033333E30303030780000000000003E6363636363636B6F3E0607000000007E3333333E36363333730000000000003E6363301C060363633E000000000000FFDBB6
:4028C000991818181818183C0000000000006363636363636363633E00000000000063636363636363361C0800000000000063636363636B6B7F3636000000000000C3C375
:40290000663C18183C66C3C3000000000000C3C3C3663C181818183C0000000000007F6343060C183061637F0000000000003C30303030303030303C00000000000080C01C
:40294000E070381C0E0703010000000000003C0C0C0C0C0C0C0C0C3C00000000081C3663000000000000000000000000000000000000000000000000FF00000018180C00CA
:4029800000000000000000000000000000000000003C46063E66663B0000000000007030303C36333333336E0000000000000000003E63606060633E0000000000000E0658
:4029C000061E36666666663B0000000000000000003E63637E60633E0000000000001C3632307C30303030780000000000000000003B666666663E06663C00000000703066
:402A000030363B33333333730000000000000C0C001C0C0C0C0C0C1E0000000000000606000E060606060666663C000000007030303333363C3633730000000000001C0C3C
:402A40000C0C0C0C0C0C0C1E0000000000000000006E7F6B6B6B6B6B0000000000000000006E3333333333330000000000000000003E63636363633E0000000000000000D5
:402A8000006E333333333E303078000000000000003B666666663E06060F000000000000006E3B33303030780000000000000000003E63380E03633E00000000000008180B
:402AC000187E181818181B0E0000000000000000006666666666663B000000000000000000636336361C1C080000000000000000006363636B6B7F360000000000000000F2
:402B00000063361C1C1C366300000000000000000063636363633F03063C000000000000007F660C1830637F0000000000000E18181870181818180E00000000000018181D
:402B40001818180018181818180000000000701818180E18181818700000000000003B6E0000000000000000000000004300232D302B2000686C4C006566674546470030F4
:402B8000313233343536373839414243444546003031323334353637383961626364656600000000F8B5C046F8BC08BC9E46704735030000390B0000F8B5C046F8BC08BCD4
:402BC0009E4670470D030000D82B0000C8000020800000008806000000000000C0F1FF0F00366E01C05D0000180000000000E02E000000000000000000000000000000008A
:402C0000000000000000000000000000000000006C2B00000000000000000000000000000000000000000000000000000000000000000000000000000000000000000000FD
:402C40000000000000000000000000000000000000000000E00000200000000000000000000000000000000000000000000000000000000000000000000000000000000054
:402C80000000000000000000000000000000000000000000000000000000000000000000000000000000000000000000000000000000000000000000000000000000000014
:402CC00000000000000000000000000000000000000000000000000000000000000000000000000000000000000000000000000000000000000000000000000000000000D4
:402D00000000000000000000000000000000000000000000000000000000000000000000000000000000000000000000000000000000000000000000000000000000000093
:402D40000000000000000000000000000000000000000000000000000000000000000000000000000000000000000000000000000000000000000000000000000000000053
:0200000490303A
:020000005C970B
:0200000490402A
:200000000000000000000000000000000000000000000000000000000000000000000000E0
:0200000490501A
:0C000000000204C81193110104D66E2AFE
:0200000490600A
:0100000001FE
:00000001FF